:100000009EC00000BCC00000BAC00000B8C0000024
:10001000B6C00000B4C00000B2C00000B0C0000014
:10002000AEC00000ACC00000AAC00000A8C0000024
:10003000A6C00000A4C00000A2C00000A0C0000034
:100040009EC00000C9C200009AC0000098C0000015
:1000500096C0000094C0000092C0000090C0000054
:100060008EC0000065C200008AC0000088C0000089
:1000700086C0000084C0000082C0000080C0000074
:100080007EC000007CC000007AC0000078C0000084
:1000900076C0000074C0000072C0000070C0000094
:1000A0006EC000006CC000006AC0000068C00000A4
:1000B00066C0000064C0000062C0000060C00000B4
:1000C0005EC000005CC000005AC0000058C00000C4
:1000D00056C0000054C0000052C0000050C00000D4
:1000E0004EC0000005A84CCDB2D44EB93836A90296
:1000F0000C50B9918688083CA6AAAA2ABE00000026
:10010000803F4E414E494E495459494E46CDCCCC84
:100110003D0AD7233C17B7D13877CC2B329595E6DB
:10012000241FB14F0A000020410000C84200401CBB
:100130004620BCBE4CCA1B0E5AAEC59D740011248D
:100140001FBECFEFD1E2DEBFCDBF00E00CBF12E09B
:10015000A0E0B2E0E8EDF3E100E00BBF02C00790E1
:100160000D92A433B107D9F722E0A4E3B2E001C0B5
:100170001D92A836B207E1F757D10C94EA0940CF97
:10018000E1E8F0E0808188608083AFE6B0E08C91A8
:1001900082608C9380818560808389E09DE3909369
:1001A0008900809388000895E0EBF0E08081806A08
:1001B0008083808181608083E1EBF0E080818760D3
:1001C00080830895CF93DF93EB016CE172E014D448
:1001D00010D4688379838A839B836CE172E080E02A
:1001E00090E00AD406D46C837D838E839F83DF9155
:1001F000CF9108954F925F926F927F928F929F92CC
:10020000AF92BF92CF92DF92EF92FF92CF93DF93A4
:10021000CDB7DEB728970FB6F894DEBF0FBECDBFBF
:1002200029833A834B835C836D837E838F83988796
:10023000C980DA80EB80FC808D809E80AF80B8849E
:10024000C501B4018CD32B013C01C501B40166D2B8
:100250004B015C0120E030E040E05FE3C701B60104
:100260001BD3A501940118D34B015C01A701960192
:10027000C301B20111D39B01AC01C501B401EAD1A4
:100280002AEF3EE74AE25FE307D328960FB6F894D9
:10029000DEBF0FBECDBFDF91CF91FF90EF90DF901B
:1002A000CF90BF90AF909F908F907F906F905F9016
:1002B0004F9008954F925F926F927F928F929F928C
:1002C000AF92BF92CF92DF92EF92FF92CF93DF93E4
:1002D000CDB7DEB728970FB6F894DEBF0FBECDBFFF
:1002E00029833A834B835C836D837E838F839887D6
:1002F000C980DA80EB80FC808D809E80AF80B884DE
:10030000C501B4012CD32B013C01C501B40106D2B7
:100310004B015C01A7019601C301B201BDD22B01C3
:100320003C0120E030E040E05FE3C701B601B4D219
:10033000A5019401B1D29B01AC01C301B20189D1E5
:100340002AEF3EE74AE25FE3A7D228960FB6F89479
:10035000DEBF0FBECDBFDF91CF91FF90EF90DF905A
:10036000CF90BF90AF909F908F907F906F905F9055
:100370004F900895EF92FF920F931F93CF93DF93C7
:10038000CDB7DEB760970FB6F894DEBF0FBECDBF16
:1003900029873A874B875C876D877E878F87988B05
:1003A00089DF162FE72EF82E092F29853A854B85F0
:1003B0005C856D857E858F8598891CDF262F462F6D
:1003C000572F682F792F49835A836B837C83812F22
:1003D0009E2DAF2DB02F8D839E83AF83B8873A813A
:1003E0004B815C81612F7E818F81988560960FB6ED
:1003F000F894DEBF0FBECDBFDF91CF911F910F915B
:10040000FF90EF90089584B1806984B985B18069C7
:1004100085B9E1E0F1E0808180648083E2E0F1E091
:100420008081806480830895CF93DF93CDB7DEB75A
:1004300028970FB6F894DEBF0FBECDBFE8E5F2E017
:100440001082118212821382148215821682178200
:10045000DADF96DEA9DEEBD000E612E0F801628179
:10046000738180819181F4D080E092E0F8019183E2
:1004700080838EE092E09383828378940F2EF3EB57
:10048000CF2ED12CF02D0F2EF4EBEF2EF12CF02DE2
:100490000EE112E08091360290913702892BD1F360
:1004A0001092370210923602209158023091590270
:1004B00040915A0250915B0260915C0270915D0222
:1004C00080915E0290915F0255DF29833A834B83CE
:1004D0005C836D837E838F83988720E030E04FE7D5
:1004E00053E469817A818B819C81D6D11AD1B62E51
:1004F000A72E20E030E04FE753E46D817E818F81AD
:100500009885CAD10ED1F601B082F70160837F933E
:100510006F93AF92BF921F930F93A8D285B180586B
:1005200085B90F900F900F900F900F900F90B2CF52
:100530001F920F920FB60F9211240BB60F922F93AA
:100540003F934F935F936F937F938F939F93AF935B
:10055000BF93EF93FF93CF93DF931F92CDB7DEB797
:10056000E6ECF0E080818983808385B1805885B98D
:1005700089818A3049F041E050E0BE016F5F7F4FD2
:1005800088E392E03CD20CC068E572E088E392E038
:1005900019DE80E2E8E3F2E0DF011D928A95E9F7D7
:1005A00081E090E090933702809336020F90DF91C4
:1005B000CF91FF91EF91BF91AF919F918F917F91DB
:1005C0006F915F914F913F912F910F900BBE0F90C4
:1005D0000FBE0F901F9018951F920F920FB60F929B
:1005E00011248F939F9381E090E090933702809342
:1005F00036029F918F910F900FBE0F901F9018950C
:10060000CF93C82F8A3011F48DE0FADFE0ECF0E0F0
:10061000808185FFFDCFC093C600CF910895E0ECA7
:10062000F0E080818823ECF78091C6000895109255
:10063000C50087E68093C400E0ECF0E080818D7F08
:10064000808386E08093C20088E98093C10008958A
:1006500008955058BB27AA270ED0D3C09CD030F0A5
:10066000A1D020F031F49F3F11F41EF491C00EF49C
:10067000E095E7FB87C0E92FE6D080F3BA17620761
:1006800073078407950718F071F49EF5FEC00EF409
:10069000E0950B2EBA2FA02D0B01B90190010C0192
:1006A000CA01A0011124FF27591B99F0593F50F4AA
:1006B000503E68F11A16F040A22F232F342F442702
:1006C000585FF3CF469537952795A795F0405395FA
:1006D000C9F77EF41F16BA0B620B730B840BBAF0CA
:1006E0009150A1F0FF0FBB1F661F771F881FC2F735
:1006F0000EC0BA0F621F731F841F48F48795779549
:100700006795B795F7959E3F08F0B3CF9395880FFF
:1007100008F09927EE0F9795879508954BD0E395AC
:1007200081C004D06894B111B1C0089594D088F00C
:100730009F5790F0B92F9927B751A0F0D1F0660FCD
:10074000771F881F991F1AF0BA95C9F712C0B130E8
:1007500081F09BD0B1E0089598C0672F782F88274B
:10076000B85F39F0B93FCCF3869577956795B39527
:10077000D9F73EF490958095709561957F4F8F4F96
:100780009F4F089597F99F6780E870E060E00895B3
:100790009FEF80EC089500240A9416161706180699
:1007A0000906089500240A94121613061406050675
:1007B0000895EECF50D0E8F3E894E0E0BB279F57D0
:1007C000F0F02AED3FE049EC06C0EE0FBB0F661FCC
:1007D000771F881F28F0B23A62077307840728F052
:1007E000B25A620B730B840BE3959A9572F78038BB
:1007F00030F49A95BB0F661F771F881FD2F7904879
:10080000B6C0092E0394000C11F4882352F0BB0FDC
:1008100040F4BF2B11F460FF04C06F5F7F4F8F4F18
:100820009F4F0895EF93E0FF06C0A2EA2AED3FE054
:1008300049EC5FEB20DFE5DF0F90039401FC90585B
:10084000E4EEF0E0A0C057FD9058440F551F59F05A
:100850005F3F71F04795880F97FB991F61F09F3FAD
:1008600079F087950895121613061406551FF2CFD6
:100870004695F1DF08C0161617061806991FF1CF26
:1008800086957105610508940895E894BB2766274D
:100890007727CB0197F908950BD0B3CF7CDF28F0F1
:1008A00081DF18F0952309F06DCF72CF1124EECFC0
:1008B000CADFA0F3959FD1F3950F50E0551F629FBB
:1008C000F001729FBB27F00DB11D639FAA27F00DA9
:1008D000B11DAA1F649F6627B00DA11D661F829FD0
:1008E0002227B00DA11D621F739FB00DA11D621FB5
:1008F000839FA00D611D221F749F3327A00D611DD2
:10090000231F849F600D211D822F762F6A2F1124B3
:100910009F5750408AF0E1F088234AF0EE0FFF1F06
:10092000BB1F661F771F881F91505040A9F79E3F3D
:10093000510570F027CFAACF5F3FECF3983EDCF370
:10094000869577956795B795F795E7959F5FC1F77A
:10095000FE2B880F911D9695879597F908959F9383
:1009600029DF0F9007FCEE5F5DCF9F3F31F0915084
:1009700020F4879577956795B795880F911D969583
:10098000879597F908959F938F937F936F93FF9324
:10099000EF939B01AC0180DFEF91FF9105D02F9188
:1009A0003F914F915F9178CFDF93CF931F930F9338
:1009B000FF92EF92DF927B018C01689405C0DA2EE2
:1009C000EF0176DFFE01E894A591259135914591DF
:1009D0005591AEF3EF014FDEFE019701A801DA94C5
:1009E00079F7DF90EF90FF900F911F91CF91DF91FA
:1009F0000895662777274AC244E352E010C0FB01FE
:100A0000DC010D900020E9F711974150504028F08B
:100A1000019000200D92C9F708951C920895FA01E3
:100A2000A191B081009719F41097E1F0CD01DC019C
:100A3000CD010D90002011F4C00113C0FB012191E4
:100A4000222319F02015D9F7F3CFFB0121912015AE
:100A500019F41E92119606C02223C1F70D900020B2
:100A6000A1F7D001FA01A193B0830895CF93DF934A
:100A7000CDB7DEB7AE014A5F5F4FFA016191719168
:100A8000AF01809162029091630203D0DF91CF9118
:100A900008952F923F924F925F926F927F928F9222
:100AA0009F92AF92BF92CF92DF92EF92FF920F93FD
:100AB0001F93CF93DF93CDB7DEB72B970FB6F89484
:100AC000DEBF0FBECDBF6C017B018A01FC01178226
:100AD0001682838181FFBFC1CE0101963C01F601E0
:100AE0009381F70193FD859193FF81917F01882385
:100AF00009F4ADC1853239F493FD859193FF81915D
:100B00007F01853221F4B60190E049D3E8CF912CE2
:100B1000212C312CFFE1F315D8F08B3279F038F429
:100B2000803279F08332A1F4232D20611DC08D32F3
:100B300061F0803369F4232D216016C0832D82601B
:100B4000382EE32DE4603E2E2AC0F32DF8601DC040
:100B500037FC2DC020ED280F2A3040F08E32B9F43A
:100B600036FC75C1232D2064322E19C036FE06C016
:100B70008AE0989E200D1124922E11C0EAE02E9E4C
:100B8000200D1124222EF32DF0623F2E08C08C364A
:100B900021F4832D8068382E02C0883641F4F70195
:100BA00093FD859193FF81917F018111B3CF982FA0
:100BB0009F7D9554933028F40C5F1F4F9FE39983DA
:100BC0000DC0833631F0833771F0833509F055C09D
:100BD00020C0F801808189830E5F1F4F8824839491
:100BE000912C530112C02801F2E04F0E511CF80164
:100BF000A080B18036FE03C0692D70E002C06FEFA7
:100C00007FEFC501C1D24C018201F32DFF773F2E4A
:100C100015C0280122E0420E511CF801A080B180CD
:100C200036FE03C0692D70E002C06FEF7FEFC50193
:100C3000A0D24C01F32DF0683F2E820133FC19C085
:100C4000822D90E088169906A0F4B60180E290E02B
:100C5000A6D22A94F5CFF50137FC859137FE819114
:100C60005F01B60190E09BD221102A9421E0821A04
:100C700091088114910479F7E1C0843611F0893626
:100C800039F5F80137FE07C0608171818281938157
:100C90000C5F1F4F08C060817181072E000C880B0C
:100CA000990B0E5F1F4FF32DFF763F2E97FF09C064
:100CB00090958095709561957F4F8F4F9F4FF0680D
:100CC0003F2E2AE030E0A301A6D2882E861844C029
:100CD000853731F4232D2F7EB22E2AE030E025C057
:100CE000932D997FB92E8F36C1F018F4883579F09D
:100CF000AEC0803719F0883721F0A9C0E92FE06134
:100D0000BE2EB4FE0DC0FB2DF460BF2E09C034FE14
:100D10000AC0292F2660B22E06C028E030E005C0A8
:100D200020E130E002C020E132E0F801B7FE07C068
:100D300060817181828193810C5F1F4F06C0608149
:100D4000718180E090E00E5F1F4FA30164D2882E76
:100D50008618FB2DFF773F2E36FE0DC0232D2E7FEC
:100D6000A22E891458F434FE0BC032FC09C0832D26
:100D70008E7EA82E05C0B82CA32C03C0B82C01C0B1
:100D8000B92CA4FE0FC0FE01E80DF11D8081803357
:100D900021F49A2D997EA92E09C0A2FE06C0B39413
:100DA000B39404C08A2D867809F0B394A3FC10C0D4
:100DB000A0FE06C0B21480F4280C922C9B180DC023
:100DC000B21458F4B60180E290E0E9D1B394F8CFC0
:100DD000B21418F42B1802C0982C212CA4FE0FC0BA
:100DE000B60180E390E0DBD1A2FE16C0A1FC03C0F7
:100DF00088E790E002C088E590E0B6010CC08A2D3B
:100E0000867851F0A1FE02C08BE201C080E2A7FC0F
:100E10008DE2B60190E0C3D1891430F4B60180E3CD
:100E200090E0BDD19A94F8CF8A94F301E80DF11DBA
:100E30008081B60190E0B3D18110F6CF222009F471
:100E40004ECEB60180E290E0AAD12A94F7CFF60107
:100E50008681978102C08FEF9FEF2B960FB6F89493
:100E6000DEBF0FBECDBFDF91CF911F910F91FF90DD
:100E7000EF90DF90CF90BF90AF909F908F907F903A
:100E80006F905F904F903F902F9008958F929F9218
:100E9000AF92BF92CF92DF92EF92FF920F931F9388
:100EA000CF93DF93EC016B016115710519F0FB0124
:100EB000918380837E01FFEFEF1AFF0A0881802F64
:100EC00090E037D1892B11F0E701F4CF0D3239F4DE
:100ED0007E0182E0E80EF11C098111E008C00B32AE
:100EE00029F47E0192E0E90EF11C098110E0E7018E
:100EF000219743E050E06AE071E0CE0122D1892BD6
:100F0000B9F4239645E050E065E071E0CE0119D1D7
:100F1000892B09F42596C114D10419F0F601D18367
:100F2000C0831111F0C060E070E080E89FE7F4C07A
:100F300043E050E062E071E0CE0103D1892B59F427
:100F4000C114D10409F4E4C0F2E0EF0EF11CF60183
:100F5000F182E082DDC020E030E0A901C0E0D0E015
:100F6000F70160EDA62EA00E89E08A1528F1912FD9
:100F70009260B92E812F887012FF04C0811123C0A6
:100F8000219621C081112197A5E0B0E00AD2DC01B1
:100F9000CB01880F991FAA1FBB1F9C01AD012A0D11
:100FA000311D411D511D283989E93807480789E15C
:100FB000580748F0166006C09EEFA9120AC013FD3C
:100FC00040C01860B12E8FEFE81AF80A00811B2D7F
:100FD000C7CF802F8F7D8534A1F580818D3211F4AC
:100FE000106106C08B3221F0319661E070E004C0E0
:100FF0008181329662E070E080538A3018F0E61BFF
:10100000F70B1FC060E070E060389CE079075CF48B
:10101000DB01AA0FBB1FAA0FBB1F6A0F7B1F660F46
:10102000771F680F711D3196DF0111978C918053E6
:101030008A3050F314FF03C0719561957109C60F92
:10104000D71F11FF08C0C114D10429F0CF010197A7
:10105000F60191838083CA01B9013FD1212F23700A
:10106000233019F04B015C0106C04B015C01B7FA5B
:10107000B094B7F8B09420E030E0A901C501B40104
:1010800028D1882309F43CC0D7FF06C0D195C1956B
:10109000D10901E211E002C009E311E06801F8E1C1
:1010A000CF1AD10890E2E92EF12CCE15DF056CF0B5
:1010B000F8012591359145915491C501B401ECDBBE
:1010C0004B015C01CE19DF09F0CF04501109F594F2
:1010D000E7940C151D0549F78A2D880F8B2D881F65
:1010E0008F3F41F020E030E0A901C501B401F1D00B
:1010F000811106C082E290E09093670280936602BD
:10110000C501B40109C060E070E080E89FEF04C051
:1011100060E070E080EC9FE7DF91CF911F910F912D
:10112000FF90EF90DF90CF90BF90AF909F908F9007
:101130000895911133C1803219F089508550D0F74C
:101140000895FB01DC014150504088F08D918134BD
:101150001CF08B350CF4805E659161341CF06B35AE
:101160000CF4605E861B611171F3990B0895881B66
:10117000FCCFFC010590615070400110D8F78095BC
:1011800090958E0F9F1F0895FC0161507040019053
:101190000110D8F7809590958E0F9F1F08950F939B
:1011A0001F93CF93DF93FB01238121FD03C08FEFBA
:1011B0009FEF2CC022FF16C04681578124813581C4
:1011C0004217530744F4A081B1819D012F5F3F4F27
:1011D000318320838C93268137812F5F3F4F378364
:1011E000268314C08B01EC01FB010084F185E02D06
:1011F0001995892BE1F6D80116968D919C91179738
:10120000019617969C938E931697CE01DF91CF91FE
:101210001F910F910895FA01AA27283051F120312A
:1012200081F1E8946F936E7F6E5F7F4F8F4F9F4F7A
:10123000AF4FB1E03ED0B4E03CD0670F781F891FBC
:101240009A1FA11D680F791F8A1F911DA11D6A0F8A
:10125000711D811D911DA11D20D009F468943F913D
:101260002AE0269F11243019305D3193DEF6CF013C
:101270000895462F4770405D4193B3E00FD0C9F702
:10128000F6CF462F4F70405D4A3318F0495D31FD6F
:101290004052419302D0A9F7EACFB4E0A6959795C2
:1012A000879577956795BA95C9F700976105710598
:1012B00008959B01AC010A2E0694579547953795E2
:1012C0002795BA95C9F7620F731F841F951FA01D3C
:1012D000089540D008F481E00895E89409C097FB90
:1012E0003EF490958095709561957F4F8F4F9F4FFD
:1012F0009923A9F0F92F96E9BB279395F695879541
:1013000077956795B795F111F8CFFAF4BB0F11F403
:1013100060FF1BC06F5F7F4F8F4F9F4F16C08823AA
:1013200011F096E911C0772321F09EE8872F762FE0
:1013300005C0662371F096E8862F70E060E02AF021
:101340009A95660F771F881FDAF7880F969587950D
:1013500097F90895990F0008550FAA0BE0E8FEEFE2
:1013600016161706E807F907C0F012161306E40769
:10137000F50798F0621B730B840B950B39F40A2662
:1013800061F0232B242B252B21F408950A2609F440
:10139000A140A6958FEF811D811D0895992788276B
:1013A000089509D0A59F900DB49F900DA49F800D26
:1013B000911D11240895A29FB001B39FC001A39F66
:1013C000700D811D1124911DB29F700D811D11247E
:0813D000911D0895F894FFCF70
:1013D800000000010000000000000F0300000000F2
:1013E80000020000000000030000000020006C65FF
:1013F80066743A2025692C2072696768743A20253A
:04140800690A00006D
:00000001FF
